{
  "contractName": "Dex",
  "abi": [
    {
      "anonymous": false,
      "inputs": [
        {
          "indexed": true,
          "internalType": "address",
          "name": "previousOwner",
          "type": "address"
        },
        {
          "indexed": true,
          "internalType": "address",
          "name": "newOwner",
          "type": "address"
        }
      ],
      "name": "OwnershipTransferred",
      "type": "event"
    },
    {
      "inputs": [
        {
          "internalType": "address",
          "name": "address_",
          "type": "address"
        },
        {
          "internalType": "bytes32",
          "name": "ticker",
          "type": "bytes32"
        }
      ],
      "name": "addToken",
      "outputs": [],
      "stateMutability": "nonpayable",
      "type": "function"
    },
    {
      "inputs": [
        {
          "internalType": "address",
          "name": "",
          "type": "address"
        },
        {
          "internalType": "bytes32",
          "name": "",
          "type": "bytes32"
        }
      ],
      "name": "balances",
      "outputs": [
        {
          "internalType": "uint256",
          "name": "",
          "type": "uint256"
        }
      ],
      "stateMutability": "view",
      "type": "function",
      "constant": true
    },
    {
      "inputs": [
        {
          "internalType": "bytes32",
          "name": "ticker",
          "type": "bytes32"
        },
        {
          "internalType": "uint256",
          "name": "amount",
          "type": "uint256"
        }
      ],
      "name": "deposit",
      "outputs": [],
      "stateMutability": "nonpayable",
      "type": "function"
    },
    {
      "inputs": [],
      "name": "depositEth",
      "outputs": [],
      "stateMutability": "payable",
      "type": "function",
      "payable": true
    },
    {
      "inputs": [
        {
          "internalType": "bytes32",
          "name": "ticker",
          "type": "bytes32"
        }
      ],
      "name": "getBalance",
      "outputs": [
        {
          "internalType": "uint256",
          "name": "",
          "type": "uint256"
        }
      ],
      "stateMutability": "view",
      "type": "function",
      "constant": true
    },
    {
      "inputs": [
        {
          "internalType": "bytes32",
          "name": "",
          "type": "bytes32"
        },
        {
          "internalType": "uint256",
          "name": "",
          "type": "uint256"
        },
        {
          "internalType": "uint256",
          "name": "",
          "type": "uint256"
        }
      ],
      "name": "orderBook",
      "outputs": [
        {
          "internalType": "uint256",
          "name": "id",
          "type": "uint256"
        },
        {
          "internalType": "address",
          "name": "trader",
          "type": "address"
        },
        {
          "internalType": "uint256",
          "name": "side",
          "type": "uint256"
        },
        {
          "internalType": "bytes32",
          "name": "ticker",
          "type": "bytes32"
        },
        {
          "internalType": "uint256",
          "name": "amount",
          "type": "uint256"
        },
        {
          "internalType": "uint256",
          "name": "price",
          "type": "uint256"
        },
        {
          "internalType": "uint256",
          "name": "filled",
          "type": "uint256"
        }
      ],
      "stateMutability": "view",
      "type": "function",
      "constant": true
    },
    {
      "inputs": [],
      "name": "owner",
      "outputs": [
        {
          "internalType": "address",
          "name": "",
          "type": "address"
        }
      ],
      "stateMutability": "view",
      "type": "function",
      "constant": true
    },
    {
      "inputs": [],
      "name": "renounceOwnership",
      "outputs": [],
      "stateMutability": "nonpayable",
      "type": "function"
    },
    {
      "inputs": [
        {
          "internalType": "bytes32",
          "name": "",
          "type": "bytes32"
        }
      ],
      "name": "tokens",
      "outputs": [
        {
          "internalType": "bytes32",
          "name": "ticker",
          "type": "bytes32"
        },
        {
          "internalType": "address",
          "name": "tokenAddress",
          "type": "address"
        }
      ],
      "stateMutability": "view",
      "type": "function",
      "constant": true
    },
    {
      "inputs": [
        {
          "internalType": "uint256",
          "name": "",
          "type": "uint256"
        }
      ],
      "name": "tokensList",
      "outputs": [
        {
          "internalType": "bytes32",
          "name": "",
          "type": "bytes32"
        }
      ],
      "stateMutability": "view",
      "type": "function",
      "constant": true
    },
    {
      "inputs": [
        {
          "internalType": "address",
          "name": "newOwner",
          "type": "address"
        }
      ],
      "name": "transferOwnership",
      "outputs": [],
      "stateMutability": "nonpayable",
      "type": "function"
    },
    {
      "inputs": [
        {
          "internalType": "bytes32",
          "name": "ticker",
          "type": "bytes32"
        },
        {
          "internalType": "uint256",
          "name": "amount",
          "type": "uint256"
        }
      ],
      "name": "withdraw",
      "outputs": [],
      "stateMutability": "nonpayable",
      "type": "function"
    },
    {
      "inputs": [
        {
          "internalType": "bytes32",
          "name": "ticker",
          "type": "bytes32"
        },
        {
          "internalType": "uint256",
          "name": "side",
          "type": "uint256"
        }
      ],
      "name": "getOrderBook",
      "outputs": [
        {
          "components": [
            {
              "internalType": "uint256",
              "name": "id",
              "type": "uint256"
            },
            {
              "internalType": "address",
              "name": "trader",
              "type": "address"
            },
            {
              "internalType": "uint256",
              "name": "side",
              "type": "uint256"
            },
            {
              "internalType": "bytes32",
              "name": "ticker",
              "type": "bytes32"
            },
            {
              "internalType": "uint256",
              "name": "amount",
              "type": "uint256"
            },
            {
              "internalType": "uint256",
              "name": "price",
              "type": "uint256"
            },
            {
              "internalType": "uint256",
              "name": "filled",
              "type": "uint256"
            }
          ],
          "internalType": "struct Dex.Order[]",
          "name": "",
          "type": "tuple[]"
        }
      ],
      "stateMutability": "view",
      "type": "function",
      "constant": true
    },
    {
      "inputs": [
        {
          "internalType": "uint256",
          "name": "side",
          "type": "uint256"
        },
        {
          "internalType": "bytes32",
          "name": "ticker",
          "type": "bytes32"
        },
        {
          "internalType": "uint256",
          "name": "amount",
          "type": "uint256"
        },
        {
          "internalType": "uint256",
          "name": "price",
          "type": "uint256"
        }
      ],
      "name": "createLimitOrder",
      "outputs": [],
      "stateMutability": "nonpayable",
      "type": "function"
    },
    {
      "inputs": [
        {
          "internalType": "uint256",
          "name": "side",
          "type": "uint256"
        },
        {
          "internalType": "bytes32",
          "name": "ticker",
          "type": "bytes32"
        },
        {
          "internalType": "uint256",
          "name": "amount",
          "type": "uint256"
        }
      ],
      "name": "createMarketOrder",
      "outputs": [],
      "stateMutability": "nonpayable",
      "type": "function"
    }
  ],
  "bytecode": "0x608060405260006004553480156200001657600080fd5b50620000376200002b6200003d60201b60201c565b6200004560201b60201c565b62000109565b600033905090565b60008060009054906101000a900473ffffffffffffffffffffffffffffffffffffffff169050816000806101000a81548173ffffffffffffffffffffffffffffffffffffffff021916908373ffffffffffffffffffffffffffffffffffffffff1602179055508173ffffffffffffffffffffffffffffffffffffffff168173ffffffffffffffffffffffffffffffffffffffff167f8be0079c531659141344cd1fd0a4f28419497f9722a3daafe3b4186f6b6457e060405160405180910390a35050565b61304980620001196000396000f3fe6080604052600436106100e85760003560e01c8063715018a61161008a5780638e739461116100595780638e739461146102d7578063904194a314610314578063c0c1eebc14610352578063f2fde38b1461037b576100e8565b8063715018a6146102435780637b2fcfff1461025a5780637c4e88b5146102835780638da5cb5b146102ac576100e8565b80631de26e16116100c65780631de26e16146101965780631f14df69146101bf578063439370b1146101fc5780634d12e34e14610206576100e8565b8063040cf020146100ed5780630bb431b6146101165780631585f8b814610159575b600080fd5b3480156100f957600080fd5b50610114600480360381019061010f919061252b565b6103a4565b005b34801561012257600080fd5b5061013d6004803603810190610138919061256b565b6105ff565b604051610150979695949392919061261d565b60405180910390f35b34801561016557600080fd5b50610180600480360381019061017b919061252b565b61068b565b60405161018d91906127f6565b60405180910390f35b3480156101a257600080fd5b506101bd60048036038101906101b8919061252b565b6107a1565b005b3480156101cb57600080fd5b506101e660048036038101906101e19190612844565b61096b565b6040516101f39190612884565b60405180910390f35b610204610990565b005b34801561021257600080fd5b5061022d6004803603810190610228919061289f565b610a19565b60405161023a91906128cc565b60405180910390f35b34801561024f57600080fd5b50610258610a3d565b005b34801561026657600080fd5b50610281600480360381019061027c91906128e7565b610ac5565b005b34801561028f57600080fd5b506102aa60048036038101906102a5919061294e565b611382565b005b3480156102b857600080fd5b506102c16120f4565b6040516102ce91906129a1565b60405180910390f35b3480156102e357600080fd5b506102fe60048036038101906102f991906129bc565b61211d565b60405161030b9190612884565b60405180910390f35b34801561032057600080fd5b5061033b600480360381019061033691906129bc565b612177565b6040516103499291906129e9565b60405180910390f35b34801561035e57600080fd5b5061037960048036038101906103749190612844565b6121bb565b005b34801561038757600080fd5b506103a2600480360381019061039d9190612a12565b6122f6565b005b81600073ffffffffffffffffffffffffffffffffffffffff166001600083815260200190815260200160002060010160009054906101000a900473ffffffffffffffffffffffffffffffffffffffff1673ffffffffffffffffffffffffffffffffffffffff16141561044b576040517f08c379a000000000000000000000000000000000000000000000000000000000815260040161044290612a9c565b60405180910390fd5b81600360003373ffffffffffffffffffffffffffffffffffffffff1673ffffffffffffffffffffffffffffffffffffffff16815260200190815260200160002060008581526020019081526020016000205410156104de576040517f08c379a00000000000000000000000000000000000000000000000000000000081526004016104d590612b08565b60405180910390fd5b81600360003373ffffffffffffffffffffffffffffffffffffffff1673ffffffffffffffffffffffffffffffffffffffff1681526020019081526020016000206000858152602001908152602001600020600082825461053e9190612b57565b925050819055506001600084815260200190815260200160002060010160009054906101000a900473ffffffffffffffffffffffffffffffffffffffff1673ffffffffffffffffffffffffffffffffffffffff1663a9059cbb33846040518363ffffffff1660e01b81526004016105b6929190612b8b565b6020604051808303816000875af11580156105d5573d6000803e3d6000fd5b505050506040513d601f19601f820116820180604052508101906105f99190612bec565b50505050565b6005602052826000526040600020602052816000526040600020818154811061062757600080fd5b906000526020600020906007020160009250925050508060000154908060010160009054906101000a900473ffffffffffffffffffffffffffffffffffffffff16908060020154908060030154908060040154908060050154908060060154905087565b6060600560008481526020019081526020016000206000838152602001908152602001600020805480602002602001604051908101604052809291908181526020016000905b8282101561079557838290600052602060002090600702016040518060e0016040529081600082015481526020016001820160009054906101000a900473ffffffffffffffffffffffffffffffffffffffff1673ffffffffffffffffffffffffffffffffffffffff1673ffffffffffffffffffffffffffffffffffffffff16815260200160028201548152602001600382015481526020016004820154815260200160058201548152602001600682015481525050815260200190600101906106d1565b50505050905092915050565b81600073ffffffffffffffffffffffffffffffffffffffff166001600083815260200190815260200160002060010160009054906101000a900473ffffffffffffffffffffffffffffffffffffffff1673ffffffffffffffffffffffffffffffffffffffff161415610848576040517f08c379a000000000000000000000000000000000000000000000000000000000815260040161083f90612a9c565b60405180910390fd5b81600360003373ffffffffffffffffffffffffffffffffffffffff1673ffffffffffffffffffffffffffffffffffffffff168152602001908152602001600020600085815260200190815260200160002060008282546108a89190612c19565b925050819055506001600084815260200190815260200160002060010160009054906101000a900473ffffffffffffffffffffffffffffffffffffffff1673ffffffffffffffffffffffffffffffffffffffff166323b872dd3330856040518463ffffffff1660e01b815260040161092293929190612c6f565b6020604051808303816000875af1158015610941573d6000803e3d6000fd5b505050506040513d601f19601f820116820180604052508101906109659190612bec565b50505050565b6003602052816000526040600020602052806000526040600020600091509150505481565b34600360003373ffffffffffffffffffffffffffffffffffffffff1673ffffffffffffffffffffffffffffffffffffffff16815260200190815260200160002060007f455448000000000000000000000000000000000000000000000000000000000081526020019081526020016000206000828254610a109190612c19565b92505081905550565b60028181548110610a2957600080fd5b906000526020600020016000915090505481565b610a456123ee565b73ffffffffffffffffffffffffffffffffffffffff16610a636120f4565b73ffffffffffffffffffffffffffffffffffffffff1614610ab9576040517f08c379a0000000000000000000000000000000000000000000000000000000008152600401610ab090612cf2565b60405180910390fd5b610ac360006123f6565b565b6000841415610b8d578082610ada9190612d12565b600360003373ffffffffffffffffffffffffffffffffffffffff1673ffffffffffffffffffffffffffffffffffffffff16815260200190815260200160002060007f45544800000000000000000000000000000000000000000000000000000000008152602001908152602001600020541015610b8c576040517f08c379a0000000000000000000000000000000000000000000000000000000008152600401610b8390612db8565b60405180910390fd5b5b6001841415610c2a5781600360003373ffffffffffffffffffffffffffffffffffffffff1673ffffffffffffffffffffffffffffffffffffffff1681526020019081526020016000206000858152602001908152602001600020541015610c29576040517f08c379a0000000000000000000000000000000000000000000000000000000008152600401610c2090612e24565b60405180910390fd5b5b600060056000858152602001908152602001600020600086815260200190815260200160002090506000816040518060e0016040528060045481526020013373ffffffffffffffffffffffffffffffffffffffff1681526020018881526020018781526020018681526020018581526020018381525090806001815401808255809150506001900390600052602060002090600702016000909190919091506000820151816000015560208201518160010160006101000a81548173ffffffffffffffffffffffffffffffffffffffff021916908373ffffffffffffffffffffffffffffffffffffffff16021790555060408201518160020155606082015181600301556080820151816004015560a0820151816005015560c082015181600601555050600080838054905011610d62576000610d74565b60018380549050610d739190612b57565b5b9050600087141561106d575b600081111561106857828181548110610d9c57610d9b612e44565b5b90600052602060002090600702016005015483600183610dbc9190612b57565b81548110610dcd57610dcc612e44565b5b9060005260206000209060070201600501541115610dea57611068565b600083600183610dfa9190612b57565b81548110610e0b57610e0a612e44565b5b90600052602060002090600702016040518060e0016040529081600082015481526020016001820160009054906101000a900473ffffffffffffffffffffffffffffffffffffffff1673ffffffffffffffffffffffffffffffffffffffff1673ffffffffffffffffffffffffffffffffffffffff168152602001600282015481526020016003820154815260200160048201548152602001600582015481526020016006820154815250509050838281548110610ecb57610eca612e44565b5b906000526020600020906007020184600184610ee79190612b57565b81548110610ef857610ef7612e44565b5b9060005260206000209060070201600082015481600001556001820160009054906101000a900473ffffffffffffffffffffffffffffffffffffffff168160010160006101000a81548173ffffffffffffffffffffffffffffffffffffffff021916908373ffffffffffffffffffffffffffffffffffffffff160217905550600282015481600201556003820154816003015560048201548160040155600582015481600501556006820154816006015590505080848381548110610fc057610fbf612e44565b5b90600052602060002090600702016000820151816000015560208201518160010160006101000a81548173ffffffffffffffffffffffffffffffffffffffff021916908373ffffffffffffffffffffffffffffffffffffffff16021790555060408201518160020155606082015181600301556080820151816004015560a0820151816005015560c08201518160060155905050818061105f90612e73565b92505050610d80565b611361565b6001871415611360575b600081111561135f5782818154811061109357611092612e44565b5b906000526020600020906007020160050154836001836110b39190612b57565b815481106110c4576110c3612e44565b5b90600052602060002090600702016005015410156110e15761135f565b6000836001836110f19190612b57565b8154811061110257611101612e44565b5b90600052602060002090600702016040518060e0016040529081600082015481526020016001820160009054906101000a900473ffffffffffffffffffffffffffffffffffffffff1673ffffffffffffffffffffffffffffffffffffffff1673ffffffffffffffffffffffffffffffffffffffff1681526020016002820154815260200160038201548152602001600482015481526020016005820154815260200160068201548152505090508382815481106111c2576111c1612e44565b5b9060005260206000209060070201846001846111de9190612b57565b815481106111ef576111ee612e44565b5b9060005260206000209060070201600082015481600001556001820160009054906101000a900473ffffffffffffffffffffffffffffffffffffffff168160010160006101000a81548173ffffffffffffffffffffffffffffffffffffffff021916908373ffffffffffffffffffffffffffffffffffffffff1602179055506002820154816002015560038201548160030155600482015481600401556005820154816005015560068201548160060155905050808483815481106112b7576112b6612e44565b5b90600052602060002090600702016000820151816000015560208201518160010160006101000a81548173ffffffffffffffffffffffffffffffffffffffff021916908373ffffffffffffffffffffffffffffffffffffffff16021790555060408201518160020155606082015181600301556080820151816004015560a0820151816005015560c08201518160060155905050818061135690612e73565b92505050611077565b5b5b6004600081548092919061137490612e9d565b919050555050505050505050565b600183141561141f5780600360003373ffffffffffffffffffffffffffffffffffffffff1673ffffffffffffffffffffffffffffffffffffffff168152602001908152602001600020600084815260200190815260200160002054101561141e576040517f08c379a000000000000000000000000000000000000000000000000000000000815260040161141590612f32565b60405180910390fd5b5b6000808414156114325760019050611437565b600090505b600060056000858152602001908152602001600020600083815260200190815260200160002090506000805b82805490508110801561147557508482105b15611edf57600082866114889190612b57565b9050600084838154811061149f5761149e612e44565b5b9060005260206000209060070201600601548584815481106114c4576114c3612e44565b5b9060005260206000209060070201600401546114e09190612b57565b90506000828211156114f4578290506114f8565b8190505b80856115049190612c19565b94508086858154811061151a57611519612e44565b5b9060005260206000209060070201600601546115369190612c19565b86858154811061154957611548612e44565b5b906000526020600020906007020160060181905550600086858154811061157357611572612e44565b5b906000526020600020906007020160050154826115909190612d12565b905060008b1415611a6d5780600360003373ffffffffffffffffffffffffffffffffffffffff1673ffffffffffffffffffffffffffffffffffffffff16815260200190815260200160002060007f4554480000000000000000000000000000000000000000000000000000000000815260200190815260200160002054101561161857600080fd5b81600360003373ffffffffffffffffffffffffffffffffffffffff1673ffffffffffffffffffffffffffffffffffffffff16815260200190815260200160002060008c8152602001908152602001600020546116749190612c19565b600360003373ffffffffffffffffffffffffffffffffffffffff1673ffffffffffffffffffffffffffffffffffffffff16815260200190815260200160002060008c81526020019081526020016000208190555080600360003373ffffffffffffffffffffffffffffffffffffffff1673ffffffffffffffffffffffffffffffffffffffff16815260200190815260200160002060007f45544800000000000000000000000000000000000000000000000000000000008152602001908152602001600020546117449190612b57565b600360003373ffffffffffffffffffffffffffffffffffffffff1673ffffffffffffffffffffffffffffffffffffffff16815260200190815260200160002060007f455448000000000000000000000000000000000000000000000000000000000081526020019081526020016000208190555081600360008988815481106117d0576117cf612e44565b5b906000526020600020906007020160010160009054906101000a900473ffffffffffffffffffffffffffffffffffffffff1673ffffffffffffffffffffffffffffffffffffffff1673ffffffffffffffffffffffffffffffffffffffff16815260200190815260200160002060008c8152602001908152602001600020546118589190612b57565b6003600089888154811061186f5761186e612e44565b5b906000526020600020906007020160010160009054906101000a900473ffffffffffffffffffffffffffffffffffffffff1673ffffffffffffffffffffffffffffffffffffffff1673ffffffffffffffffffffffffffffffffffffffff16815260200190815260200160002060008c815260200190815260200160002081905550806003600089888154811061190857611907612e44565b5b906000526020600020906007020160010160009054906101000a900473ffffffffffffffffffffffffffffffffffffffff1673ffffffffffffffffffffffffffffffffffffffff1673ffffffffffffffffffffffffffffffffffffffff16815260200190815260200160002060007f45544800000000000000000000000000000000000000000000000000000000008152602001908152602001600020546119b09190612c19565b600360008988815481106119c7576119c6612e44565b5b906000526020600020906007020160010160009054906101000a900473ffffffffffffffffffffffffffffffffffffffff1673ffffffffffffffffffffffffffffffffffffffff1673ffffffffffffffffffffffffffffffffffffffff16815260200190815260200160002060007f4554480000000000000000000000000000000000000000000000000000000000815260200190815260200160002081905550611ec8565b60018b1415611ec75781600360003373ffffffffffffffffffffffffffffffffffffffff1673ffffffffffffffffffffffffffffffffffffffff16815260200190815260200160002060008c815260200190815260200160002054611ad29190612b57565b600360003373ffffffffffffffffffffffffffffffffffffffff1673ffffffffffffffffffffffffffffffffffffffff16815260200190815260200160002060008c81526020019081526020016000208190555080600360003373ffffffffffffffffffffffffffffffffffffffff1673ffffffffffffffffffffffffffffffffffffffff16815260200190815260200160002060007f4554480000000000000000000000000000000000000000000000000000000000815260200190815260200160002054611ba29190612c19565b600360003373ffffffffffffffffffffffffffffffffffffffff1673ffffffffffffffffffffffffffffffffffffffff16815260200190815260200160002060007f45544800000000000000000000000000000000000000000000000000000000008152602001908152602001600020819055508160036000898881548110611c2e57611c2d612e44565b5b906000526020600020906007020160010160009054906101000a900473ffffffffffffffffffffffffffffffffffffffff1673ffffffffffffffffffffffffffffffffffffffff1673ffffffffffffffffffffffffffffffffffffffff16815260200190815260200160002060008c815260200190815260200160002054611cb69190612c19565b60036000898881548110611ccd57611ccc612e44565b5b906000526020600020906007020160010160009054906101000a900473ffffffffffffffffffffffffffffffffffffffff1673ffffffffffffffffffffffffffffffffffffffff1673ffffffffffffffffffffffffffffffffffffffff16815260200190815260200160002060008c8152602001908152602001600020819055508060036000898881548110611d6657611d65612e44565b5b906000526020600020906007020160010160009054906101000a900473ffffffffffffffffffffffffffffffffffffffff1673ffffffffffffffffffffffffffffffffffffffff1673ffffffffffffffffffffffffffffffffffffffff16815260200190815260200160002060007f4554480000000000000000000000000000000000000000000000000000000000815260200190815260200160002054611e0e9190612b57565b60036000898881548110611e2557611e24612e44565b5b906000526020600020906007020160010160009054906101000a900473ffffffffffffffffffffffffffffffffffffffff1673ffffffffffffffffffffffffffffffffffffffff1673ffffffffffffffffffffffffffffffffffffffff16815260200190815260200160002060007f45544800000000000000000000000000000000000000000000000000000000008152602001908152602001600020819055505b5b505050508080611ed790612e9d565b915050611463565b505b60008280549050118015611f3e575081600081548110611f0457611f03612e44565b5b90600052602060002090600702016004015482600081548110611f2a57611f29612e44565b5b906000526020600020906007020160060154145b156120ec5760005b60018380549050611f579190612b57565b8110156120655782600182611f6c9190612c19565b81548110611f7d57611f7c612e44565b5b9060005260206000209060070201838281548110611f9e57611f9d612e44565b5b9060005260206000209060070201600082015481600001556001820160009054906101000a900473ffffffffffffffffffffffffffffffffffffffff168160010160006101000a81548173ffffffffffffffffffffffffffffffffffffffff021916908373ffffffffffffffffffffffffffffffffffffffff1602179055506002820154816002015560038201548160030155600482015481600401556005820154816005015560068201548160060155905050808061205d90612e9d565b915050611f46565b508180548061207757612076612f52565b5b60019003818190600052602060002090600702016000808201600090556001820160006101000a81549073ffffffffffffffffffffffffffffffffffffffff02191690556002820160009055600382016000905560048201600090556005820160009055600682016000905550509055611ee1565b505050505050565b60008060009054906101000a900473ffffffffffffffffffffffffffffffffffffffff16905090565b6000600360003373ffffffffffffffffffffffffffffffffffffffff1673ffffffffffffffffffffffffffffffffffffffff1681526020019081526020016000206000838152602001908152602001600020549050919050565b60016020528060005260406000206000915090508060000154908060010160009054906101000a900473ffffffffffffffffffffffffffffffffffffffff16905082565b6121c36123ee565b73ffffffffffffffffffffffffffffffffffffffff166121e16120f4565b73ffffffffffffffffffffffffffffffffffffffff1614612237576040517f08c379a000000000000000000000000000000000000000000000000000000000815260040161222e90612cf2565b60405180910390fd5b60405180604001604052808281526020018373ffffffffffffffffffffffffffffffffffffffff16815250600160008381526020019081526020016000206000820151816000015560208201518160010160006101000a81548173ffffffffffffffffffffffffffffffffffffffff021916908373ffffffffffffffffffffffffffffffffffffffff16021790555090505060028190806001815401808255809150506001900390600052602060002001600090919091909150555050565b6122fe6123ee565b73ffffffffffffffffffffffffffffffffffffffff1661231c6120f4565b73ffffffffffffffffffffffffffffffffffffffff1614612372576040517f08c379a000000000000000000000000000000000000000000000000000000000815260040161236990612cf2565b60405180910390fd5b600073ffffffffffffffffffffffffffffffffffffffff168173ffffffffffffffffffffffffffffffffffffffff1614156123e2576040517f08c379a00000000000000000000000000000000000000000000000000000000081526004016123d990612ff3565b60405180910390fd5b6123eb816123f6565b50565b600033905090565b60008060009054906101000a900473ffffffffffffffffffffffffffffffffffffffff169050816000806101000a81548173ffffffffffffffffffffffffffffffffffffffff021916908373ffffffffffffffffffffffffffffffffffffffff1602179055508173ffffffffffffffffffffffffffffffffffffffff168173ffffffffffffffffffffffffffffffffffffffff167f8be0079c531659141344cd1fd0a4f28419497f9722a3daafe3b4186f6b6457e060405160405180910390a35050565b600080fd5b6000819050919050565b6124d2816124bf565b81146124dd57600080fd5b50565b6000813590506124ef816124c9565b92915050565b6000819050919050565b612508816124f5565b811461251357600080fd5b50565b600081359050612525816124ff565b92915050565b60008060408385031215612542576125416124ba565b5b6000612550858286016124e0565b925050602061256185828601612516565b9150509250929050565b600080600060608486031215612584576125836124ba565b5b6000612592868287016124e0565b93505060206125a386828701612516565b92505060406125b486828701612516565b9150509250925092565b6125c7816124f5565b82525050565b600073ffffffffffffffffffffffffffffffffffffffff82169050919050565b60006125f8826125cd565b9050919050565b612608816125ed565b82525050565b612617816124bf565b82525050565b600060e082019050612632600083018a6125be565b61263f60208301896125ff565b61264c60408301886125be565b612659606083018761260e565b61266660808301866125be565b61267360a08301856125be565b61268060c08301846125be565b98975050505050505050565b600081519050919050565b600082825260208201905092915050565b6000819050602082019050919050565b6126c1816124f5565b82525050565b6126d0816125ed565b82525050565b6126df816124bf565b82525050565b60e0820160008201516126fb60008501826126b8565b50602082015161270e60208501826126c7565b50604082015161272160408501826126b8565b50606082015161273460608501826126d6565b50608082015161274760808501826126b8565b5060a082015161275a60a08501826126b8565b5060c082015161276d60c08501826126b8565b50505050565b600061277f83836126e5565b60e08301905092915050565b6000602082019050919050565b60006127a38261268c565b6127ad8185612697565b93506127b8836126a8565b8060005b838110156127e95781516127d08882612773565b97506127db8361278b565b9250506001810190506127bc565b5085935050505092915050565b600060208201905081810360008301526128108184612798565b905092915050565b612821816125ed565b811461282c57600080fd5b50565b60008135905061283e81612818565b92915050565b6000806040838503121561285b5761285a6124ba565b5b60006128698582860161282f565b925050602061287a858286016124e0565b9150509250929050565b600060208201905061289960008301846125be565b92915050565b6000602082840312156128b5576128b46124ba565b5b60006128c384828501612516565b91505092915050565b60006020820190506128e1600083018461260e565b92915050565b60008060008060808587031215612901576129006124ba565b5b600061290f87828801612516565b9450506020612920878288016124e0565b935050604061293187828801612516565b925050606061294287828801612516565b91505092959194509250565b600080600060608486031215612967576129666124ba565b5b600061297586828701612516565b9350506020612986868287016124e0565b925050604061299786828701612516565b9150509250925092565b60006020820190506129b660008301846125ff565b92915050565b6000602082840312156129d2576129d16124ba565b5b60006129e0848285016124e0565b91505092915050565b60006040820190506129fe600083018561260e565b612a0b60208301846125ff565b9392505050565b600060208284031215612a2857612a276124ba565b5b6000612a368482850161282f565b91505092915050565b600082825260208201905092915050565b7f546f6b656e20646f6573206e6f74206578697374000000000000000000000000600082015250565b6000612a86601483612a3f565b9150612a9182612a50565b602082019050919050565b60006020820190508181036000830152612ab581612a79565b9050919050565b7f4e6f7420656e6f7567682062616c616e63650000000000000000000000000000600082015250565b6000612af2601283612a3f565b9150612afd82612abc565b602082019050919050565b60006020820190508181036000830152612b2181612ae5565b9050919050565b7f4e487b7100000000000000000000000000000000000000000000000000000000600052601160045260246000fd5b6000612b62826124f5565b9150612b6d836124f5565b925082821015612b8057612b7f612b28565b5b828203905092915050565b6000604082019050612ba060008301856125ff565b612bad60208301846125be565b9392505050565b60008115159050919050565b612bc981612bb4565b8114612bd457600080fd5b50565b600081519050612be681612bc0565b92915050565b600060208284031215612c0257612c016124ba565b5b6000612c1084828501612bd7565b91505092915050565b6000612c24826124f5565b9150612c2f836124f5565b9250827fffffffffffffffffffffffffffffffffffffffffffffffffffffffffffffffff03821115612c6457612c63612b28565b5b828201905092915050565b6000606082019050612c8460008301866125ff565b612c9160208301856125ff565b612c9e60408301846125be565b949350505050565b7f4f776e61626c653a2063616c6c6572206973206e6f7420746865206f776e6572600082015250565b6000612cdc602083612a3f565b9150612ce782612ca6565b602082019050919050565b60006020820190508181036000830152612d0b81612ccf565b9050919050565b6000612d1d826124f5565b9150612d28836124f5565b9250817fffffffffffffffffffffffffffffffffffffffffffffffffffffffffffffffff0483118215151615612d6157612d60612b28565b5b828202905092915050565b7f42555920736964652062616c616e636520646566696369656e74000000000000600082015250565b6000612da2601a83612a3f565b9150612dad82612d6c565b602082019050919050565b60006020820190508181036000830152612dd181612d95565b9050919050565b7f53454c4c20736964652062616c616e636520646566696369656e740000000000600082015250565b6000612e0e601b83612a3f565b9150612e1982612dd8565b602082019050919050565b60006020820190508181036000830152612e3d81612e01565b9050919050565b7f4e487b7100000000000000000000000000000000000000000000000000000000600052603260045260246000fd5b6000612e7e826124f5565b91506000821415612e9257612e91612b28565b5b600182039050919050565b6000612ea8826124f5565b91507fffffffffffffffffffffffffffffffffffffffffffffffffffffffffffffffff821415612edb57612eda612b28565b5b600182019050919050565b7f496e7375666669656e742062616c616e63650000000000000000000000000000600082015250565b6000612f1c601283612a3f565b9150612f2782612ee6565b602082019050919050565b60006020820190508181036000830152612f4b81612f0f565b9050919050565b7f4e487b7100000000000000000000000000000000000000000000000000000000600052603160045260246000fd5b7f4f776e61626c653a206e6577206f776e657220697320746865207a65726f206160008201527f6464726573730000000000000000000000000000000000000000000000000000602082015250565b6000612fdd602683612a3f565b9150612fe882612f81565b604082019050919050565b6000602082019050818103600083015261300c81612fd0565b905091905056fea264697066735822122075561a6b255ddd8ff10f032c6acb0072af0eb9957d45fec43c34178859be64a464736f6c634300080a0033",
  "immutableReferences": {},
  "source": "pragma solidity 0.8.10; \r\npragma experimental ABIEncoderV2;\r\n\r\nimport \"./Wallet.sol\";\r\n\r\n\r\n\r\ncontract Dex is Wallet {\r\n\r\n    enum Side {\r\n    BUY,\r\n    SELL\r\n}\r\n    \r\n    struct Order {\r\n        uint id; \r\n        address trader; \r\n        uint side;\r\n        bytes32 ticker;\r\n        uint amount; \r\n        uint price; \r\n        uint filled; \r\n    }\r\n\r\n    uint nextOrderID = 0; \r\n\r\n    \r\n\r\n\r\nmapping (bytes32 => mapping(uint => Order[])) public orderBook;\r\n\r\nfunction getOrderBook(bytes32 ticker, uint side) view public returns(Order[] memory) {\r\n    return orderBook[ticker][side];\r\n}\r\n\r\n function createLimitOrder(uint side, bytes32 ticker, uint amount,  uint price) public {\r\n        \r\n        \r\n        if (side == 0){\r\n            require(balances[msg.sender][bytes32(\"ETH\")] >= amount * price, \"BUY side balance deficient\");\r\n            \r\n        }\r\n\r\n        if (side == 1){\r\n            require(balances[msg.sender][ticker] >= amount, \"SELL side balance deficient\");\r\n        }\r\n\r\n        Order[] storage orders = orderBook[ticker][side];\r\n        \r\n        uint filled = 0; \r\n\r\n        orders.push(\r\n            Order(nextOrderID, msg.sender, side, ticker, amount, price, filled)\r\n        );\r\n\r\n\r\n       \r\n\r\n        uint i = orders.length > 0 ? orders.length - 1 : 0; \r\n\r\n        if (side == 0){\r\n\r\n            while(i>0) {\r\n                if(orders[i - 1].price > orders[i].price) {\r\n                    break;\r\n                }\r\n\r\n                Order memory orderToMove = orders[i - 1];\r\n                     orders[i - 1] = orders[i]; \r\n                     orders[i] = orderToMove;\r\n                     i--; \r\n\r\n\r\n            }\r\n\r\n        }\r\n\r\n        else if (side == 1){\r\n\r\n            while(i>0) {\r\n                if(orders[i - 1].price < orders[i].price) {\r\n                    break;\r\n                }\r\n\r\n                Order memory orderToMove = orders[i - 1];\r\n                     orders[i - 1] = orders[i]; \r\n                     orders[i] = orderToMove;\r\n                     i--; \r\n\r\n\r\n            }\r\n\r\n        }\r\n\r\n         nextOrderID++; \r\n\r\n\r\n\r\n\r\n    }\r\n\r\n    function createMarketOrder(uint side, bytes32 ticker, uint amount) public{\r\n\r\n        if(side == 1){\r\n            require(balances[msg.sender][ticker] >= amount, \"Insuffient balance\");\r\n        }\r\n        \r\n        uint orderBookSide;\r\n        if(side == 0){\r\n            orderBookSide = 1;\r\n        }\r\n        else{\r\n            orderBookSide = 0;\r\n        }\r\n        Order[] storage orders = orderBook[ticker][orderBookSide];\r\n\r\n        uint totalFilled = 0;\r\n\r\n        for (uint256 i = 0; i < orders.length && totalFilled < amount; i++) {\r\n            uint leftToFill = amount -totalFilled;\r\n            uint availableToFill = orders[i].amount - orders[i].filled;\r\n            uint filled = 0;\r\n            if(availableToFill > leftToFill){\r\n                filled = leftToFill; //Fill the entire market order\r\n            }\r\n            else{ \r\n                filled = availableToFill; //Fill as much as is available in order[i]\r\n            }\r\n\r\n            totalFilled = totalFilled+(filled);\r\n            orders[i].filled = orders[i].filled+(filled);\r\n            uint cost = filled*(orders[i].price);\r\n\r\n            if(side == 0){\r\n                //Verify that the buyer has enough ETH to cover the purchase (require)\r\n                require(balances[msg.sender][\"ETH\"] >= cost);\r\n                //msg.sender is the buyer\r\n                balances[msg.sender][ticker] = balances[msg.sender][ticker]+(filled);\r\n                balances[msg.sender][\"ETH\"] = balances[msg.sender][\"ETH\"]-(cost);\r\n                \r\n                balances[orders[i].trader][ticker] = balances[orders[i].trader][ticker]-(filled);\r\n                balances[orders[i].trader][\"ETH\"] = balances[orders[i].trader][\"ETH\"]+(cost);\r\n            }\r\n            else if(side == 1){\r\n                //Msg.sender is the seller\r\n                balances[msg.sender][ticker] = balances[msg.sender][ticker]-(filled);\r\n                balances[msg.sender][\"ETH\"] = balances[msg.sender][\"ETH\"]+(cost);\r\n                \r\n                balances[orders[i].trader][ticker] = balances[orders[i].trader][ticker]+(filled);\r\n                balances[orders[i].trader][\"ETH\"] = balances[orders[i].trader][\"ETH\"]-(cost);\r\n            }\r\n            \r\n        }\r\n            //Remove 100% filled orders from the orderbook\r\n        while(orders.length > 0 && orders[0].filled == orders[0].amount){\r\n            //Remove the top element in the orders array by overwriting every element\r\n            // with the next element in the order list\r\n            for (uint256 i = 0; i < orders.length - 1; i++) {\r\n                orders[i] = orders[i + 1];\r\n            }\r\n            orders.pop();\r\n        }\r\n        \r\n    }\r\n\r\n    //  function remove(Order[] storage array, uint index) internal returns(Order[] storage) {\r\n        \r\n    //     for (uint i = index; i<array.length-1; i++){\r\n    //         array[i] = array[i+1];\r\n    //     }\r\n    //     array.pop(); \r\n    //     return array;\r\n    // }\r\n    \r\n}\r\n\r\n\r\n\r\n\r\n",
  "sourcePath": "C:\\Users\\Ismail\\Documents\\Ethereum-201\\DEX\\contracts\\dex.sol",
  "compiler": {
    "name": "solc",
    "version": "0.8.10+commit.fc410830.Emscripten.clang"
  },
  "schemaVersion": "3.4.3",
  "updatedAt": "2021-11-21T13:30:25.666Z",
  "networkType": "ethereum",
  "devdoc": {
    "kind": "dev",
    "methods": {
      "owner()": {
        "details": "Returns the address of the current owner."
      },
      "renounceOwnership()": {
        "details": "Leaves the contract without owner. It will not be possible to call `onlyOwner` functions anymore. Can only be called by the current owner. NOTE: Renouncing ownership will leave the contract without an owner, thereby removing any functionality that is only available to the owner."
      },
      "transferOwnership(address)": {
        "details": "Transfers ownership of the contract to a new account (`newOwner`). Can only be called by the current owner."
      }
    },
    "version": 1
  },
  "userdoc": {
    "kind": "user",
    "methods": {},
    "version": 1
  }
}