{
  "contractName": "Wallet",
  "abi": [
    {
      "anonymous": false,
      "inputs": [
        {
          "indexed": true,
          "internalType": "address",
          "name": "previousOwner",
          "type": "address"
        },
        {
          "indexed": true,
          "internalType": "address",
          "name": "newOwner",
          "type": "address"
        }
      ],
      "name": "OwnershipTransferred",
      "type": "event"
    },
    {
      "inputs": [
        {
          "internalType": "address",
          "name": "",
          "type": "address"
        },
        {
          "internalType": "bytes32",
          "name": "",
          "type": "bytes32"
        }
      ],
      "name": "balances",
      "outputs": [
        {
          "internalType": "uint256",
          "name": "",
          "type": "uint256"
        }
      ],
      "stateMutability": "view",
      "type": "function"
    },
    {
      "inputs": [],
      "name": "owner",
      "outputs": [
        {
          "internalType": "address",
          "name": "",
          "type": "address"
        }
      ],
      "stateMutability": "view",
      "type": "function"
    },
    {
      "inputs": [],
      "name": "renounceOwnership",
      "outputs": [],
      "stateMutability": "nonpayable",
      "type": "function"
    },
    {
      "inputs": [
        {
          "internalType": "bytes32",
          "name": "",
          "type": "bytes32"
        }
      ],
      "name": "tokens",
      "outputs": [
        {
          "internalType": "bytes32",
          "name": "ticker",
          "type": "bytes32"
        },
        {
          "internalType": "address",
          "name": "tokenAddress",
          "type": "address"
        }
      ],
      "stateMutability": "view",
      "type": "function"
    },
    {
      "inputs": [
        {
          "internalType": "uint256",
          "name": "",
          "type": "uint256"
        }
      ],
      "name": "tokensList",
      "outputs": [
        {
          "internalType": "bytes32",
          "name": "",
          "type": "bytes32"
        }
      ],
      "stateMutability": "view",
      "type": "function"
    },
    {
      "inputs": [
        {
          "internalType": "address",
          "name": "newOwner",
          "type": "address"
        }
      ],
      "name": "transferOwnership",
      "outputs": [],
      "stateMutability": "nonpayable",
      "type": "function"
    },
    {
      "inputs": [
        {
          "internalType": "address",
          "name": "address_",
          "type": "address"
        },
        {
          "internalType": "bytes32",
          "name": "ticker",
          "type": "bytes32"
        }
      ],
      "name": "addToken",
      "outputs": [],
      "stateMutability": "nonpayable",
      "type": "function"
    },
    {
      "inputs": [
        {
          "internalType": "bytes32",
          "name": "ticker",
          "type": "bytes32"
        },
        {
          "internalType": "uint256",
          "name": "amount",
          "type": "uint256"
        }
      ],
      "name": "deposit",
      "outputs": [],
      "stateMutability": "nonpayable",
      "type": "function"
    },
    {
      "inputs": [
        {
          "internalType": "bytes32",
          "name": "ticker",
          "type": "bytes32"
        },
        {
          "internalType": "uint256",
          "name": "amount",
          "type": "uint256"
        }
      ],
      "name": "withdraw",
      "outputs": [],
      "stateMutability": "nonpayable",
      "type": "function"
    },
    {
      "inputs": [],
      "name": "depositEth",
      "outputs": [],
      "stateMutability": "payable",
      "type": "function"
    },
    {
      "inputs": [
        {
          "internalType": "bytes32",
          "name": "ticker",
          "type": "bytes32"
        }
      ],
      "name": "getBalance",
      "outputs": [
        {
          "internalType": "uint256",
          "name": "",
          "type": "uint256"
        }
      ],
      "stateMutability": "view",
      "type": "function"
    }
  ],
  "bytecode": "0x608060405234801561001057600080fd5b5061002d61002261003260201b60201c565b61003a60201b60201c565b6100fe565b600033905090565b60008060009054906101000a900473ffffffffffffffffffffffffffffffffffffffff169050816000806101000a81548173ffffffffffffffffffffffffffffffffffffffff021916908373ffffffffffffffffffffffffffffffffffffffff1602179055508173ffffffffffffffffffffffffffffffffffffffff168173ffffffffffffffffffffffffffffffffffffffff167f8be0079c531659141344cd1fd0a4f28419497f9722a3daafe3b4186f6b6457e060405160405180910390a35050565b6111e38061010d6000396000f3fe60806040526004361061009c5760003560e01c8063715018a611610064578063715018a6146101775780638da5cb5b1461018e5780638e739461146101b9578063904194a3146101f6578063c0c1eebc14610234578063f2fde38b1461025d5761009c565b8063040cf020146100a15780631de26e16146100ca5780631f14df69146100f3578063439370b1146101305780634d12e34e1461013a575b600080fd5b3480156100ad57600080fd5b506100c860048036038101906100c39190610c3c565b610286565b005b3480156100d657600080fd5b506100f160048036038101906100ec9190610c3c565b6104e1565b005b3480156100ff57600080fd5b5061011a60048036038101906101159190610cda565b6106ab565b6040516101279190610d29565b60405180910390f35b6101386106d0565b005b34801561014657600080fd5b50610161600480360381019061015c9190610d44565b610759565b60405161016e9190610d80565b60405180910390f35b34801561018357600080fd5b5061018c61077d565b005b34801561019a57600080fd5b506101a3610805565b6040516101b09190610daa565b60405180910390f35b3480156101c557600080fd5b506101e060048036038101906101db9190610dc5565b61082e565b6040516101ed9190610d29565b60405180910390f35b34801561020257600080fd5b5061021d60048036038101906102189190610dc5565b610888565b60405161022b929190610df2565b60405180910390f35b34801561024057600080fd5b5061025b60048036038101906102569190610cda565b6108cc565b005b34801561026957600080fd5b50610284600480360381019061027f9190610e1b565b610a07565b005b81600073ffffffffffffffffffffffffffffffffffffffff166001600083815260200190815260200160002060010160009054906101000a900473ffffffffffffffffffffffffffffffffffffffff1673ffffffffffffffffffffffffffffffffffffffff16141561032d576040517f08c379a000000000000000000000000000000000000000000000000000000000815260040161032490610ea5565b60405180910390fd5b81600360003373ffffffffffffffffffffffffffffffffffffffff1673ffffffffffffffffffffffffffffffffffffffff16815260200190815260200160002060008581526020019081526020016000205410156103c0576040517f08c379a00000000000000000000000000000000000000000000000000000000081526004016103b790610f11565b60405180910390fd5b81600360003373ffffffffffffffffffffffffffffffffffffffff1673ffffffffffffffffffffffffffffffffffffffff168152602001908152602001600020600085815260200190815260200160002060008282546104209190610f60565b925050819055506001600084815260200190815260200160002060010160009054906101000a900473ffffffffffffffffffffffffffffffffffffffff1673ffffffffffffffffffffffffffffffffffffffff1663a9059cbb33846040518363ffffffff1660e01b8152600401610498929190610f94565b6020604051808303816000875af11580156104b7573d6000803e3d6000fd5b505050506040513d601f19601f820116820180604052508101906104db9190610ff5565b50505050565b81600073ffffffffffffffffffffffffffffffffffffffff166001600083815260200190815260200160002060010160009054906101000a900473ffffffffffffffffffffffffffffffffffffffff1673ffffffffffffffffffffffffffffffffffffffff161415610588576040517f08c379a000000000000000000000000000000000000000000000000000000000815260040161057f90610ea5565b60405180910390fd5b81600360003373ffffffffffffffffffffffffffffffffffffffff1673ffffffffffffffffffffffffffffffffffffffff168152602001908152602001600020600085815260200190815260200160002060008282546105e89190611022565b925050819055506001600084815260200190815260200160002060010160009054906101000a900473ffffffffffffffffffffffffffffffffffffffff1673ffffffffffffffffffffffffffffffffffffffff166323b872dd3330856040518463ffffffff1660e01b815260040161066293929190611078565b6020604051808303816000875af1158015610681573d6000803e3d6000fd5b505050506040513d601f19601f820116820180604052508101906106a59190610ff5565b50505050565b6003602052816000526040600020602052806000526040600020600091509150505481565b34600360003373ffffffffffffffffffffffffffffffffffffffff1673ffffffffffffffffffffffffffffffffffffffff16815260200190815260200160002060007f4554480000000000000000000000000000000000000000000000000000000000815260200190815260200160002060008282546107509190611022565b92505081905550565b6002818154811061076957600080fd5b906000526020600020016000915090505481565b610785610aff565b73ffffffffffffffffffffffffffffffffffffffff166107a3610805565b73ffffffffffffffffffffffffffffffffffffffff16146107f9576040517f08c379a00000000000000000000000000000000000000000000000000000000081526004016107f0906110fb565b60405180910390fd5b6108036000610b07565b565b60008060009054906101000a900473ffffffffffffffffffffffffffffffffffffffff16905090565b6000600360003373ffffffffffffffffffffffffffffffffffffffff1673ffffffffffffffffffffffffffffffffffffffff1681526020019081526020016000206000838152602001908152602001600020549050919050565b60016020528060005260406000206000915090508060000154908060010160009054906101000a900473ffffffffffffffffffffffffffffffffffffffff16905082565b6108d4610aff565b73ffffffffffffffffffffffffffffffffffffffff166108f2610805565b73ffffffffffffffffffffffffffffffffffffffff1614610948576040517f08c379a000000000000000000000000000000000000000000000000000000000815260040161093f906110fb565b60405180910390fd5b60405180604001604052808281526020018373ffffffffffffffffffffffffffffffffffffffff16815250600160008381526020019081526020016000206000820151816000015560208201518160010160006101000a81548173ffffffffffffffffffffffffffffffffffffffff021916908373ffffffffffffffffffffffffffffffffffffffff16021790555090505060028190806001815401808255809150506001900390600052602060002001600090919091909150555050565b610a0f610aff565b73ffffffffffffffffffffffffffffffffffffffff16610a2d610805565b73ffffffffffffffffffffffffffffffffffffffff1614610a83576040517f08c379a0000000000000000000000000000000000000000000000000000000008152600401610a7a906110fb565b60405180910390fd5b600073ffffffffffffffffffffffffffffffffffffffff168173ffffffffffffffffffffffffffffffffffffffff161415610af3576040517f08c379a0000000000000000000000000000000000000000000000000000000008152600401610aea9061118d565b60405180910390fd5b610afc81610b07565b50565b600033905090565b60008060009054906101000a900473ffffffffffffffffffffffffffffffffffffffff169050816000806101000a81548173ffffffffffffffffffffffffffffffffffffffff021916908373ffffffffffffffffffffffffffffffffffffffff1602179055508173ffffffffffffffffffffffffffffffffffffffff168173ffffffffffffffffffffffffffffffffffffffff167f8be0079c531659141344cd1fd0a4f28419497f9722a3daafe3b4186f6b6457e060405160405180910390a35050565b600080fd5b6000819050919050565b610be381610bd0565b8114610bee57600080fd5b50565b600081359050610c0081610bda565b92915050565b6000819050919050565b610c1981610c06565b8114610c2457600080fd5b50565b600081359050610c3681610c10565b92915050565b60008060408385031215610c5357610c52610bcb565b5b6000610c6185828601610bf1565b9250506020610c7285828601610c27565b9150509250929050565b600073ffffffffffffffffffffffffffffffffffffffff82169050919050565b6000610ca782610c7c565b9050919050565b610cb781610c9c565b8114610cc257600080fd5b50565b600081359050610cd481610cae565b92915050565b60008060408385031215610cf157610cf0610bcb565b5b6000610cff85828601610cc5565b9250506020610d1085828601610bf1565b9150509250929050565b610d2381610c06565b82525050565b6000602082019050610d3e6000830184610d1a565b92915050565b600060208284031215610d5a57610d59610bcb565b5b6000610d6884828501610c27565b91505092915050565b610d7a81610bd0565b82525050565b6000602082019050610d956000830184610d71565b92915050565b610da481610c9c565b82525050565b6000602082019050610dbf6000830184610d9b565b92915050565b600060208284031215610ddb57610dda610bcb565b5b6000610de984828501610bf1565b91505092915050565b6000604082019050610e076000830185610d71565b610e146020830184610d9b565b9392505050565b600060208284031215610e3157610e30610bcb565b5b6000610e3f84828501610cc5565b91505092915050565b600082825260208201905092915050565b7f546f6b656e20646f6573206e6f74206578697374000000000000000000000000600082015250565b6000610e8f601483610e48565b9150610e9a82610e59565b602082019050919050565b60006020820190508181036000830152610ebe81610e82565b9050919050565b7f4e6f7420656e6f7567682062616c616e63650000000000000000000000000000600082015250565b6000610efb601283610e48565b9150610f0682610ec5565b602082019050919050565b60006020820190508181036000830152610f2a81610eee565b9050919050565b7f4e487b7100000000000000000000000000000000000000000000000000000000600052601160045260246000fd5b6000610f6b82610c06565b9150610f7683610c06565b925082821015610f8957610f88610f31565b5b828203905092915050565b6000604082019050610fa96000830185610d9b565b610fb66020830184610d1a565b9392505050565b60008115159050919050565b610fd281610fbd565b8114610fdd57600080fd5b50565b600081519050610fef81610fc9565b92915050565b60006020828403121561100b5761100a610bcb565b5b600061101984828501610fe0565b91505092915050565b600061102d82610c06565b915061103883610c06565b9250827fffffffffffffffffffffffffffffffffffffffffffffffffffffffffffffffff0382111561106d5761106c610f31565b5b828201905092915050565b600060608201905061108d6000830186610d9b565b61109a6020830185610d9b565b6110a76040830184610d1a565b949350505050565b7f4f776e61626c653a2063616c6c6572206973206e6f7420746865206f776e6572600082015250565b60006110e5602083610e48565b91506110f0826110af565b602082019050919050565b60006020820190508181036000830152611114816110d8565b9050919050565b7f4f776e61626c653a206e6577206f776e657220697320746865207a65726f206160008201527f6464726573730000000000000000000000000000000000000000000000000000602082015250565b6000611177602683610e48565b91506111828261111b565b604082019050919050565b600060208201905081810360008301526111a68161116a565b905091905056fea2646970667358221220fb06242ac72d77443058b07f2b5f64f6960e0ebc078e652d8735f9dfb53532bd64736f6c634300080a0033",
  "immutableReferences": {},
  "source": "pragma solidity 0.8.10; \r\n\r\nimport \"../node_modules/@openzeppelin/contracts/token/ERC20/IERC20.sol\"; \r\nimport \"../node_modules/@openzeppelin/contracts/access/Ownable.sol\"; \r\n\r\ncontract Wallet is Ownable {\r\n\r\n    struct Token {\r\n        bytes32 ticker; \r\n        address tokenAddress; \r\n    }\r\n\r\n    mapping (bytes32 => Token) public tokens; \r\n    bytes32[] public tokensList; \r\n\r\n    mapping(address => mapping (bytes32 => uint)) public balances; \r\n\r\n    modifier tokenExist(bytes32 ticker){\r\n        require(tokens[ticker].tokenAddress != address(0), \"Token does not exist\");\r\n        _;\r\n    }\r\n\r\n    function addToken(address address_ , bytes32 ticker) onlyOwner external {\r\n        \r\n        tokens[ticker] = Token(ticker, address_); \r\n        tokensList.push(ticker);\r\n    }\r\n\r\n    function deposit(bytes32 ticker, uint amount) tokenExist(ticker) external {\r\n        \r\n        balances[msg.sender][ticker] += amount; \r\n        IERC20(tokens[ticker].tokenAddress).transferFrom(msg.sender, address(this), amount);\r\n    }\r\n\r\n    function withdraw(bytes32 ticker, uint amount) tokenExist(ticker) external {\r\n\r\n        require(balances[msg.sender][ticker] >= amount, \"Not enough balance\"); \r\n         \r\n        balances[msg.sender][ticker] -= amount; \r\n        IERC20(tokens[ticker].tokenAddress).transfer(msg.sender, amount);\r\n    }\r\n\r\n    function depositEth() public payable {\r\n        balances[msg.sender][\"ETH\"] += msg.value; \r\n    }\r\n\r\n    function getBalance(bytes32 ticker) public view returns (uint) {\r\n       return balances[msg.sender][ticker];\r\n    }\r\n\r\n    \r\n\r\n}",
  "sourcePath": "C:\\Users\\Ismail\\Documents\\Ethereum-201\\DEX\\contracts\\Wallet.sol",
  "compiler": {
    "name": "solc",
    "version": "0.8.10+commit.fc410830.Emscripten.clang"
  },
  "schemaVersion": "3.4.3",
  "updatedAt": "2021-11-21T13:29:48.616Z",
  "devdoc": {
    "kind": "dev",
    "methods": {
      "owner()": {
        "details": "Returns the address of the current owner."
      },
      "renounceOwnership()": {
        "details": "Leaves the contract without owner. It will not be possible to call `onlyOwner` functions anymore. Can only be called by the current owner. NOTE: Renouncing ownership will leave the contract without an owner, thereby removing any functionality that is only available to the owner."
      },
      "transferOwnership(address)": {
        "details": "Transfers ownership of the contract to a new account (`newOwner`). Can only be called by the current owner."
      }
    },
    "version": 1
  },
  "userdoc": {
    "kind": "user",
    "methods": {},
    "version": 1
  }
}